{
  "_format": "hh-sol-artifact-1",
  "contractName": "StakingRewards",
  "sourceName": "contracts/StakingRewards.sol",
  "abi": [
    {
      "inputs": [
        {
          "internalType": "contract SionToken",
          "name": "_tokenAddress",
          "type": "address"
        }
      ],
      "stateMutability": "nonpayable",
      "type": "constructor"
    },
    {
      "anonymous": false,
      "inputs": [
        {
          "indexed": true,
          "internalType": "address",
          "name": "user",
          "type": "address"
        },
        {
          "indexed": false,
          "internalType": "uint256",
          "name": "reward",
          "type": "uint256"
        }
      ],
      "name": "RewardPaid",
      "type": "event"
    },
    {
      "inputs": [],
      "name": "_sionToken",
      "outputs": [
        {
          "internalType": "contract SionToken",
          "name": "",
          "type": "address"
        }
      ],
      "stateMutability": "view",
      "type": "function"
    },
    {
      "inputs": [],
      "name": "getReward",
      "outputs": [
        {
          "internalType": "bool",
          "name": "",
          "type": "bool"
        }
      ],
      "stateMutability": "nonpayable",
      "type": "function"
    },
    {
      "inputs": [
        {
          "internalType": "address",
          "name": "_stakeholder",
          "type": "address"
        }
      ],
      "name": "rewardOf",
      "outputs": [
        {
          "internalType": "uint256",
          "name": "",
          "type": "uint256"
        }
      ],
      "stateMutability": "view",
      "type": "function"
    },
    {
      "inputs": [
        {
          "internalType": "uint256",
          "name": "_amount",
          "type": "uint256"
        }
      ],
      "name": "stake",
      "outputs": [
        {
          "internalType": "bool",
          "name": "",
          "type": "bool"
        }
      ],
      "stateMutability": "nonpayable",
      "type": "function"
    },
    {
      "inputs": [
        {
          "internalType": "address",
          "name": "",
          "type": "address"
        }
      ],
      "name": "stakeLists",
      "outputs": [
        {
          "internalType": "uint256",
          "name": "stakesAmount",
          "type": "uint256"
        },
        {
          "internalType": "uint256",
          "name": "rewardsAmount",
          "type": "uint256"
        },
        {
          "internalType": "uint256",
          "name": "lastUpdateTime",
          "type": "uint256"
        }
      ],
      "stateMutability": "view",
      "type": "function"
    },
    {
      "inputs": [
        {
          "internalType": "address",
          "name": "_stakeholder",
          "type": "address"
        }
      ],
      "name": "stakeOf",
      "outputs": [
        {
          "internalType": "uint256",
          "name": "",
          "type": "uint256"
        }
      ],
      "stateMutability": "view",
      "type": "function"
    },
    {
      "inputs": [
        {
          "internalType": "uint256",
          "name": "_amount",
          "type": "uint256"
        }
      ],
      "name": "unStake",
      "outputs": [
        {
          "internalType": "bool",
          "name": "",
          "type": "bool"
        }
      ],
      "stateMutability": "nonpayable",
      "type": "function"
    },
    {
      "inputs": [
        {
          "internalType": "address",
          "name": "_account",
          "type": "address"
        }
      ],
      "name": "updateReward",
      "outputs": [
        {
          "internalType": "uint256",
          "name": "",
          "type": "uint256"
        }
      ],
      "stateMutability": "view",
      "type": "function"
    }
  ],
  "bytecode": "0x60806040526001805561032060025534801561001a57600080fd5b5060405161098e38038061098e8339810160408190526100399161005e565b600080546001600160a01b0319166001600160a01b039290921691909117905561008c565b60006020828403121561006f578081fd5b81516001600160a01b0381168114610085578182fd5b9392505050565b6108f38061009b6000396000f3fe608060405234801561001057600080fd5b50600436106100785760003560e01c8063168f83bb1461007d5780631d62ebd9146100a85780633d18b912146100c857806342623360146100dd5780635d3eea91146100f0578063632447c914610103578063a694fc3a14610116578063a6c7c8ba14610129575b600080fd5b61009061008b366004610617565b61013e565b60405161009f93929190610803565b60405180910390f35b6100bb6100b6366004610617565b61015f565b60405161009f91906107fa565b6100d0610181565b60405161009f91906106df565b6100bb6100eb366004610617565b6102a1565b6100d06100fe36600461065e565b6102bc565b6100bb610111366004610617565b6103e5565b6100d061012436600461065e565b610460565b6101316105d8565b60405161009f919061068e565b60036020526000908152604090208054600182015460029092015490919083565b6001600160a01b0381166000908152600360205260409020600101545b919050565b336000818152600360205260408120909161019b906103e5565b600182018190556101c75760405162461bcd60e51b81526004016101be906107d6565b60405180910390fd5b600181015460005460405163a9059cbb60e01b81526001600160a01b039091169063a9059cbb906101fe90339085906004016106c6565b602060405180830381600087803b15801561021857600080fd5b505af115801561022c573d6000803e3d6000fd5b505050506040513d601f19601f82011682018060405250810190610250919061063e565b506000600183015542600283015560405133907fe2403640ba68fed3a2f88b7557551d1993f84b99bb10ff833f0cf8db0c5e0486906102909084906107fa565b60405180910390a260019250505090565b6001600160a01b031660009081526003602052604090205490565b33600090815260036020526040812080546102e95760405162461bcd60e51b81526004016101be9061076e565b600083116103095760405162461bcd60e51b81526004016101be906106ea565b805483111561032a5760405162461bcd60e51b81526004016101be90610790565b60005460405163a9059cbb60e01b81526001600160a01b039091169063a9059cbb9061035c90339087906004016106c6565b602060405180830381600087803b15801561037657600080fd5b505af115801561038a573d6000803e3d6000fd5b505050506040513d601f19601f820116820180604052508101906103ae919061063e565b506103b8336103e5565b60018201558054839082906000906103d1908490610870565b909155505042600290910155506001919050565b6001600160a01b0381166000908152600360205260408120805461040e5760010154905061017c565b61045961044e61271061044860025461044860015461044288600001546104428a60020154426105e790919063ffffffff16565b906105f3565b906105ff565b60018301549061060b565b9392505050565b600080546040516370a0823160e01b815283916001600160a01b0316906370a082319061049190339060040161068e565b60206040518083038186803b1580156104a957600080fd5b505afa1580156104bd573d6000803e3d6000fd5b505050506040513d601f19601f820116820180604052508101906104e19190610676565b10156104ff5760405162461bcd60e51b81526004016101be9061072c565b6000821161051f5760405162461bcd60e51b81526004016101be906106ea565b6000546040516323b872dd60e01b81526001600160a01b03909116906323b872dd90610553903390309087906004016106a2565b602060405180830381600087803b15801561056d57600080fd5b505af1158015610581573d6000803e3d6000fd5b505050506040513d601f19601f820116820180604052508101906105a5919061063e565b50336000818152600360205260409020906105bf906103e5565b60018201558054839082906000906103d1908490610819565b6000546001600160a01b031681565b60006104598284610870565b60006104598284610851565b60006104598284610831565b60006104598284610819565b600060208284031215610628578081fd5b81356001600160a01b0381168114610459578182fd5b60006020828403121561064f578081fd5b81518015158114610459578182fd5b60006020828403121561066f578081fd5b5035919050565b600060208284031215610687578081fd5b5051919050565b6001600160a01b0391909116815260200190565b6001600160a01b039384168152919092166020820152604081019190915260600190565b6001600160a01b03929092168252602082015260400190565b901515815260200190565b602080825260349082015260008051602061089e8339815191526040820152730756c64206265206c6172676572207468616e20360641b606082015260800190565b60208082526022908201527f506c65617365206465706f73697465206d6f726520696e20796f757220636172604082015261642160f01b606082015260800190565b6020808252600890820152674e6f207374616b6560c01b604082015260600190565b602080825260389082015260008051602061089e8339815191526040820152771d5b19081899481b195cdcc81d1a185b8811195c1bdcda5d60421b606082015260800190565b6020808252600a90820152694e6f207265776172647360b01b604082015260600190565b90815260200190565b9283526020830191909152604082015260600190565b6000821982111561082c5761082c610887565b500190565b60008261084c57634e487b7160e01b81526012600452602481fd5b500490565b600081600019048311821515161561086b5761086b610887565b500290565b60008282101561088257610882610887565b500390565b634e487b7160e01b600052601160045260246000fdfe54686520616d6f756e7420746f206265207472616e736665727265642073686fa264697066735822122027e43c8f2e3a712d504204ed6e6e1c1cf5497c32748c321e1dbf100e16dd150c64736f6c63430008000033",
  "linkReferences": {},
  "deployedLinkReferences": {}
}