{
  "_format": "hh-sol-artifact-1",
  "contractName": "SionVesting",
  "sourceName": "contracts/TokenVesting.sol",
  "abi": [
    {
      "inputs": [
        {
          "internalType": "contract SionToken",
          "name": "sionTokenAddr_",
          "type": "address"
        },
        {
          "internalType": "address",
          "name": "beneficiary_",
          "type": "address"
        },
        {
          "internalType": "uint256",
          "name": "start_",
          "type": "uint256"
        },
        {
          "internalType": "uint256",
          "name": "cliffDuration_",
          "type": "uint256"
        },
        {
          "internalType": "uint256",
          "name": "duration_",
          "type": "uint256"
        },
        {
          "internalType": "bool",
          "name": "revocable_",
          "type": "bool"
        }
      ],
      "stateMutability": "nonpayable",
      "type": "constructor"
    },
    {
      "anonymous": false,
      "inputs": [
        {
          "indexed": true,
          "internalType": "address",
          "name": "previousOwner",
          "type": "address"
        },
        {
          "indexed": true,
          "internalType": "address",
          "name": "newOwner",
          "type": "address"
        }
      ],
      "name": "OwnershipTransferred",
      "type": "event"
    },
    {
      "anonymous": false,
      "inputs": [
        {
          "indexed": false,
          "internalType": "address",
          "name": "tokenAddr",
          "type": "address"
        }
      ],
      "name": "SionVestingRevoked",
      "type": "event"
    },
    {
      "anonymous": false,
      "inputs": [
        {
          "indexed": false,
          "internalType": "address",
          "name": "tokenAddr",
          "type": "address"
        },
        {
          "indexed": false,
          "internalType": "uint256",
          "name": "amount",
          "type": "uint256"
        }
      ],
      "name": "TokensReleased",
      "type": "event"
    },
    {
      "inputs": [],
      "name": "_sionToken",
      "outputs": [
        {
          "internalType": "contract SionToken",
          "name": "",
          "type": "address"
        }
      ],
      "stateMutability": "view",
      "type": "function"
    },
    {
      "inputs": [],
      "name": "balanceOf",
      "outputs": [
        {
          "internalType": "uint256",
          "name": "",
          "type": "uint256"
        }
      ],
      "stateMutability": "view",
      "type": "function"
    },
    {
      "inputs": [],
      "name": "beneficiary",
      "outputs": [
        {
          "internalType": "address",
          "name": "",
          "type": "address"
        }
      ],
      "stateMutability": "view",
      "type": "function"
    },
    {
      "inputs": [],
      "name": "cliff",
      "outputs": [
        {
          "internalType": "uint256",
          "name": "",
          "type": "uint256"
        }
      ],
      "stateMutability": "view",
      "type": "function"
    },
    {
      "inputs": [],
      "name": "duration",
      "outputs": [
        {
          "internalType": "uint256",
          "name": "",
          "type": "uint256"
        }
      ],
      "stateMutability": "view",
      "type": "function"
    },
    {
      "inputs": [],
      "name": "nowTime",
      "outputs": [
        {
          "internalType": "uint256",
          "name": "",
          "type": "uint256"
        }
      ],
      "stateMutability": "view",
      "type": "function"
    },
    {
      "inputs": [],
      "name": "owner",
      "outputs": [
        {
          "internalType": "address",
          "name": "",
          "type": "address"
        }
      ],
      "stateMutability": "view",
      "type": "function"
    },
    {
      "inputs": [],
      "name": "release",
      "outputs": [
        {
          "internalType": "bool",
          "name": "",
          "type": "bool"
        }
      ],
      "stateMutability": "nonpayable",
      "type": "function"
    },
    {
      "inputs": [
        {
          "internalType": "address",
          "name": "tokenAddr",
          "type": "address"
        }
      ],
      "name": "released",
      "outputs": [
        {
          "internalType": "uint256",
          "name": "",
          "type": "uint256"
        }
      ],
      "stateMutability": "view",
      "type": "function"
    },
    {
      "inputs": [],
      "name": "renounceOwnership",
      "outputs": [],
      "stateMutability": "nonpayable",
      "type": "function"
    },
    {
      "inputs": [],
      "name": "revocable",
      "outputs": [
        {
          "internalType": "bool",
          "name": "",
          "type": "bool"
        }
      ],
      "stateMutability": "view",
      "type": "function"
    },
    {
      "inputs": [],
      "name": "revoke",
      "outputs": [
        {
          "internalType": "bool",
          "name": "",
          "type": "bool"
        }
      ],
      "stateMutability": "nonpayable",
      "type": "function"
    },
    {
      "inputs": [
        {
          "internalType": "address",
          "name": "tokenAddr",
          "type": "address"
        }
      ],
      "name": "revoked",
      "outputs": [
        {
          "internalType": "bool",
          "name": "",
          "type": "bool"
        }
      ],
      "stateMutability": "view",
      "type": "function"
    },
    {
      "inputs": [
        {
          "internalType": "uint256",
          "name": "_amount",
          "type": "uint256"
        }
      ],
      "name": "setTotaltokens",
      "outputs": [],
      "stateMutability": "nonpayable",
      "type": "function"
    },
    {
      "inputs": [],
      "name": "start",
      "outputs": [
        {
          "internalType": "uint256",
          "name": "",
          "type": "uint256"
        }
      ],
      "stateMutability": "view",
      "type": "function"
    },
    {
      "inputs": [],
      "name": "totalBalance",
      "outputs": [
        {
          "internalType": "uint256",
          "name": "",
          "type": "uint256"
        }
      ],
      "stateMutability": "view",
      "type": "function"
    },
    {
      "inputs": [
        {
          "internalType": "address",
          "name": "newOwner",
          "type": "address"
        }
      ],
      "name": "transferOwnership",
      "outputs": [],
      "stateMutability": "nonpayable",
      "type": "function"
    }
  ],
  "bytecode": "0x60806040523480156200001157600080fd5b5060405162000e7338038062000e738339810160408190526200003491620001d8565b62000048620000426200016f565b62000173565b6001600160a01b0385166200007a5760405162461bcd60e51b8152600401620000719062000299565b60405180910390fd5b818311156200009d5760405162461bcd60e51b81526004016200007190620002e5565b60008211620000c05760405162461bcd60e51b815260040162000071906200032f565b42620000db8386620001c360201b620006a91790919060201c565b11620000fb5760405162461bcd60e51b815260040162000071906200024b565b600180546001600160a01b03199081166001600160a01b03898116919091179092556002805490911691871691909117905560048490556200014a8484620001c3602090811b620006a917901c565b6003556005919091556007805460ff191691151591909117905550620003a492505050565b3390565b600080546001600160a01b038381166001600160a01b0319831681178455604051919092169283917f8be0079c531659141344cd1fd0a4f28419497f9722a3daafe3b4186f6b6457e09190a35050565b6000620001d1828462000366565b9392505050565b60008060008060008060c08789031215620001f1578182fd5b8651620001fe816200038b565b602088015190965062000211816200038b565b8095505060408701519350606087015192506080870151915060a087015180151581146200023d578182fd5b809150509295509295509295565b6020808252602e908201527f53696f6e56657374696e673a2066696e616c2074696d65206973206265666f7260408201526d652063757272656e742074696d6560901b606082015260800190565b6020808252602c908201527f53696f6e56657374696e673a2062656e6566696369617279206973207468652060408201526b7a65726f206164647265737360a01b606082015260800190565b6020808252602a908201527f53696f6e56657374696e673a20636c696666206973206c6f6e676572207468616040820152693710323ab930ba34b7b760b11b606082015260800190565b6020808252601a908201527f53696f6e56657374696e673a206475726174696f6e2069732030000000000000604082015260600190565b600082198211156200038657634e487b7160e01b81526011600452602481fd5b500190565b6001600160a01b0381168114620003a157600080fd5b50565b610abf80620003b46000396000f3fe608060405234801561001057600080fd5b50600436106100db5760003560e01c80630fb5a6b4146100e057806313d033c0146100fe5780632f2d35e314610106578063335f1b371461011b57806338af3eed14610123578063715018a614610138578063722713f71461014057806386d1a69f14610148578063872a78101461015d5780638da5cb5b146101655780639852595c1461016d578063a6c7c8ba14610180578063ad7a672f14610188578063b6549f7514610190578063be9a655514610198578063f2fde38b146101a0578063fa01dc06146101b3575b600080fd5b6100e86101c6565b6040516100f591906109fc565b60405180910390f35b6100e86101cd565b610119610114366004610835565b6101d3565b005b6100e86101d8565b61012b6101dc565b6040516100f59190610865565b6101196101eb565b6100e861023f565b6101506102c5565b6040516100f59190610892565b61015061044a565b61012b610453565b6100e861017b3660046107ee565b610462565b61012b61047d565b6100e861048c565b610150610492565b6100e8610614565b6101196101ae3660046107ee565b61061a565b6101506101c13660046107ee565b61068b565b6005545b90565b60035490565b600655565b4290565b6002546001600160a01b031690565b6101f36106bc565b6001600160a01b0316610204610453565b6001600160a01b0316146102335760405162461bcd60e51b815260040161022a90610993565b60405180910390fd5b61023d60006106c0565b565b6001546040516370a0823160e01b81526000916001600160a01b0316906370a0823190610270903090600401610865565b60206040518083038186803b15801561028857600080fd5b505afa15801561029c573d6000803e3d6000fd5b505050506040513d601f19601f820116820180604052508101906102c0919061084d565b905090565b60006102cf6106bc565b6001600160a01b03166102e0610453565b6001600160a01b0316146103065760405162461bcd60e51b815260040161022a90610993565b6000610310610710565b9050600081116103325760405162461bcd60e51b815260040161022a90610925565b6002546001600160a01b031660009081526008602052604090205461035790826106a9565b600280546001600160a01b0390811660009081526008602052604090819020939093556001549154925163a9059cbb60e01b81529181169263a9059cbb926103a89291909116908590600401610879565b602060405180830381600087803b1580156103c257600080fd5b505af11580156103d6573d6000803e3d6000fd5b505050506040513d601f19601f820116820180604052508101906103fa9190610815565b506002546040517fc7798891864187665ac6dd119286e44ec13f014527aeeb2b8eb3fd413df931799161043a916001600160a01b03909116908490610879565b60405180910390a1600191505090565b60075460ff1690565b6000546001600160a01b031690565b6001600160a01b031660009081526008602052604090205490565b6001546001600160a01b031681565b60065481565b600061049c6106bc565b6001600160a01b03166104ad610453565b6001600160a01b0316146104d35760405162461bcd60e51b815260040161022a90610993565b60075460ff166104f55760405162461bcd60e51b815260040161022a906109c8565b6002546001600160a01b031660009081526009602052604090205460ff16156105305760405162461bcd60e51b815260040161022a9061089d565b6006546002546001600160a01b03166000908152600860205260409020541061056b5760405162461bcd60e51b815260040161022a9061095c565b6002546001600160a01b03166000908152600960205260408120805460ff19166001179055610598610710565b6002546001600160a01b03166000908152600860205260409020549091506105c090826106a9565b600280546001600160a01b039081166000908152600860205260409081902093909355905491517f23a30ee46011c510985f6fc6fe36a62cd804dc690f5d58db21c946404124e1e59261043a921690610865565b60045490565b6106226106bc565b6001600160a01b0316610633610453565b6001600160a01b0316146106595760405162461bcd60e51b815260040161022a90610993565b6001600160a01b03811661067f5760405162461bcd60e51b815260040161022a906108df565b610688816106c0565b50565b6001600160a01b031660009081526009602052604090205460ff1690565b60006106b58284610a05565b9392505050565b3390565b600080546001600160a01b038381166001600160a01b0319831681178455604051919092169283917f8be0079c531659141344cd1fd0a4f28419497f9722a3daafe3b4186f6b6457e09190a35050565b6002546001600160a01b03166000908152600860205260408120546102c09061073761073d565b906107ca565b6000600354421015610751575060006101ca565b600554600454610760916106a9565b4210158061078857506002546001600160a01b031660009081526009602052604090205460ff165b1561079657506006546101ca565b6107c36005546107bd6107b4600454426107ca90919063ffffffff16565b600654906107d6565b906107e2565b90506101ca565b60006106b58284610a5c565b60006106b58284610a3d565b60006106b58284610a1d565b6000602082840312156107ff578081fd5b81356001600160a01b03811681146106b5578182fd5b600060208284031215610826578081fd5b815180151581146106b5578182fd5b600060208284031215610846578081fd5b5035919050565b60006020828403121561085e578081fd5b5051919050565b6001600160a01b0391909116815260200190565b6001600160a01b03929092168252602082015260400190565b901515815260200190565b60208082526022908201527f53696f6e56657374696e673a20746f6b656e20616c7265616479207265766f6b604082015261195960f21b606082015260800190565b60208082526026908201527f4f776e61626c653a206e6577206f776e657220697320746865207a65726f206160408201526564647265737360d01b606082015260800190565b6020808252601e908201527f53696f6e56657374696e673a206e6f20746f6b656e7320617265206475650000604082015260600190565b6020808252601e908201527f53696f6e56657374696e673a206e6f20746f6b656e7320746f20766573740000604082015260600190565b6020808252818101527f4f776e61626c653a2063616c6c6572206973206e6f7420746865206f776e6572604082015260600190565b6020808252601a908201527953696f6e56657374696e673a2063616e6e6f74207265766f6b6560301b604082015260600190565b90815260200190565b60008219821115610a1857610a18610a73565b500190565b600082610a3857634e487b7160e01b81526012600452602481fd5b500490565b6000816000190483118215151615610a5757610a57610a73565b500290565b600082821015610a6e57610a6e610a73565b500390565b634e487b7160e01b600052601160045260246000fdfea2646970667358221220a108c3430ff33c1d1a17088eb75a4749abaaff90c9895d79c74a1613ce06713764736f6c63430008000033",
  "linkReferences": {},
  "deployedLinkReferences": {}
}