{
  "_format": "hh-sol-artifact-1",
  "contractName": "Presale",
  "sourceName": "contracts/Presale.sol",
  "abi": [
    {
      "inputs": [
        {
          "internalType": "uint256",
          "name": "_rate",
          "type": "uint256"
        },
        {
          "internalType": "address payable",
          "name": "_ownerWallet",
          "type": "address"
        },
        {
          "internalType": "contract SionToken",
          "name": "_sionTokenAddr",
          "type": "address"
        }
      ],
      "stateMutability": "nonpayable",
      "type": "constructor"
    },
    {
      "anonymous": false,
      "inputs": [
        {
          "indexed": true,
          "internalType": "address",
          "name": "buyer",
          "type": "address"
        },
        {
          "indexed": false,
          "internalType": "uint256",
          "name": "amount",
          "type": "uint256"
        }
      ],
      "name": "BuyTokensFinished",
      "type": "event"
    },
    {
      "inputs": [],
      "name": "_sionToken",
      "outputs": [
        {
          "internalType": "contract SionToken",
          "name": "",
          "type": "address"
        }
      ],
      "stateMutability": "view",
      "type": "function"
    },
    {
      "inputs": [
        {
          "internalType": "address",
          "name": "_buyer",
          "type": "address"
        }
      ],
      "name": "buyTokens",
      "outputs": [],
      "stateMutability": "payable",
      "type": "function"
    },
    {
      "inputs": [
        {
          "internalType": "uint256",
          "name": "amount",
          "type": "uint256"
        }
      ],
      "name": "getPrice",
      "outputs": [
        {
          "internalType": "uint256",
          "name": "",
          "type": "uint256"
        }
      ],
      "stateMutability": "view",
      "type": "function"
    },
    {
      "inputs": [],
      "name": "getSentEther",
      "outputs": [
        {
          "internalType": "uint256",
          "name": "",
          "type": "uint256"
        }
      ],
      "stateMutability": "view",
      "type": "function"
    },
    {
      "inputs": [],
      "name": "getTotalEarned",
      "outputs": [
        {
          "internalType": "uint256",
          "name": "",
          "type": "uint256"
        }
      ],
      "stateMutability": "view",
      "type": "function"
    },
    {
      "inputs": [],
      "name": "rate",
      "outputs": [
        {
          "internalType": "uint256",
          "name": "",
          "type": "uint256"
        }
      ],
      "stateMutability": "view",
      "type": "function"
    },
    {
      "inputs": [],
      "name": "sentEther",
      "outputs": [
        {
          "internalType": "uint256",
          "name": "",
          "type": "uint256"
        }
      ],
      "stateMutability": "view",
      "type": "function"
    },
    {
      "inputs": [],
      "name": "totalEarned",
      "outputs": [
        {
          "internalType": "uint256",
          "name": "",
          "type": "uint256"
        }
      ],
      "stateMutability": "view",
      "type": "function"
    }
  ],
  "bytecode": "0x608060405234801561001057600080fd5b506040516105c33803806105c383398101604081905261002f916100b5565b600083116100585760405162461bcd60e51b815260040161004f9061012e565b60405180910390fd5b6001600160a01b03821661007e5760405162461bcd60e51b815260040161004f906100f7565b600292909255600180546001600160a01b039283166001600160a01b0319918216179091556000805492909316911617905561016a565b6000806000606084860312156100c9578283fd5b8351925060208401516100db81610152565b60408501519092506100ec81610152565b809150509250925092565b60208082526013908201527f7a65726f2077616c6c6574206164647265737300000000000000000000000000604082015260600190565b6020808252600a90820152697a65726f20726174652160b01b604082015260600190565b6001600160a01b038116811461016757600080fd5b50565b61044a806101796000396000f3fe60806040526004361061006b5760003560e01c80632c4e722e1461007057806336e1f1fc1461009b5780636dfa8d99146100b0578063a6c7c8ba146100c5578063ca440772146100e7578063dbd1c08f146100fc578063e757223014610111578063ec8ac4d814610131575b600080fd5b34801561007c57600080fd5b50610085610146565b604051610092919061039e565b60405180910390f35b3480156100a757600080fd5b5061008561014c565b3480156100bc57600080fd5b50610085610152565b3480156100d157600080fd5b506100da610158565b604051610092919061038a565b3480156100f357600080fd5b50610085610167565b34801561010857600080fd5b5061008561016d565b34801561011d57600080fd5b5061008561012c366004610359565b61017c565b61014461013f366004610312565b610199565b005b60025481565b60045481565b60035481565b6000546001600160a01b031681565b60045490565b60006101776102e1565b905090565b6000610193600254836102e790919063ffffffff16565b92915050565b6001600160a01b0381166101ac57600080fd5b346101b657600080fd5b60006101cd600254346102fa90919063ffffffff16565b6003549091506101dd9034610306565b60035560005460405163a9059cbb60e01b81526001600160a01b039091169063a9059cbb906102129085908590600401610371565b602060405180830381600087803b15801561022c57600080fd5b505af1158015610240573d6000803e3d6000fd5b505050506040513d601f19601f820116820180604052508101906102649190610339565b506001546040516001600160a01b03909116903480156108fc02916000818181858888f1935050505015801561029e573d6000803e3d6000fd5b503460045560405133907ffd015e538b08ddf8826983b311be2dc808917bbd4a2a8bd462febba52c9ffac1906102d590849061039e565b60405180910390a25050565b60035490565b60006102f382846103bf565b9392505050565b60006102f382846103df565b60006102f382846103a7565b600060208284031215610323578081fd5b81356001600160a01b03811681146102f3578182fd5b60006020828403121561034a578081fd5b815180151581146102f3578182fd5b60006020828403121561036a578081fd5b5035919050565b6001600160a01b03929092168252602082015260400190565b6001600160a01b0391909116815260200190565b90815260200190565b600082198211156103ba576103ba6103fe565b500190565b6000826103da57634e487b7160e01b81526012600452602481fd5b500490565b60008160001904831182151516156103f9576103f96103fe565b500290565b634e487b7160e01b600052601160045260246000fdfea264697066735822122035b1fc40445c323eeb00afb5fc569063bbec3b5497ff66e164ca5d04b9c073cd64736f6c63430008000033",
  "linkReferences": {},
  "deployedLinkReferences": {}
}